{
  "contractName": "ContractWithFlashLoan",
  "abi": [
    {
      "inputs": [
        {
          "internalType": "address",
          "name": "onesplitAddress",
          "type": "address"
        },
        {
          "internalType": "address",
          "name": "ethAddress",
          "type": "address"
        },
        {
          "internalType": "address",
          "name": "daiAddress",
          "type": "address"
        },
        {
          "internalType": "address",
          "name": "beneficiaryAddress",
          "type": "address"
        }
      ],
      "payable": false,
      "stateMutability": "nonpayable",
      "type": "constructor"
    },
    {
      "anonymous": false,
      "inputs": [
        {
          "indexed": false,
          "internalType": "uint256",
          "name": "profit",
          "type": "uint256"
        },
        {
          "indexed": false,
          "internalType": "uint256",
          "name": "date",
          "type": "uint256"
        }
      ],
      "name": "NewArbitrage",
      "type": "event"
    },
    {
      "payable": true,
      "stateMutability": "payable",
      "type": "fallback"
    },
    {
      "constant": true,
      "inputs": [],
      "name": "addressesProvider",
      "outputs": [
        {
          "internalType": "contract ILendingPoolAddressesProvider",
          "name": "",
          "type": "address"
        }
      ],
      "payable": false,
      "stateMutability": "view",
      "type": "function"
    },
    {
      "constant": false,
      "inputs": [
        {
          "internalType": "address",
          "name": "_reserve",
          "type": "address"
        },
        {
          "internalType": "uint256",
          "name": "_amount",
          "type": "uint256"
        },
        {
          "internalType": "uint256",
          "name": "_fee",
          "type": "uint256"
        },
        {
          "internalType": "bytes",
          "name": "_params",
          "type": "bytes"
        }
      ],
      "name": "executeOperation",
      "outputs": [],
      "payable": false,
      "stateMutability": "nonpayable",
      "type": "function"
    },
    {
      "constant": false,
      "inputs": [
        {
          "internalType": "address",
          "name": "reserve",
          "type": "address"
        },
        {
          "internalType": "address",
          "name": "assetToFlashLoan",
          "type": "address"
        },
        {
          "internalType": "uint256",
          "name": "amountToLoan",
          "type": "uint256"
        },
        {
          "internalType": "bytes",
          "name": "_params",
          "type": "bytes"
        }
      ],
      "name": "initateFlashLoan",
      "outputs": [],
      "payable": false,
      "stateMutability": "nonpayable",
      "type": "function"
    }
  ],
  "bytecode": "0x60806040527324a42fd28c976a61df5d00d0599c34c4f90748c86000806101000a81548173ffffffffffffffffffffffffffffffffffffffff021916908373ffffffffffffffffffffffffffffffffffffffff1602179055503480156200006557600080fd5b50604051620017f6380380620017f683398181016040526200008b9190810190620001b0565b83600160006101000a81548173ffffffffffffffffffffffffffffffffffffffff021916908373ffffffffffffffffffffffffffffffffffffffff16021790555082600260006101000a81548173ffffffffffffffffffffffffffffffffffffffff021916908373ffffffffffffffffffffffffffffffffffffffff16021790555081600360006101000a81548173ffffffffffffffffffffffffffffffffffffffff021916908373ffffffffffffffffffffffffffffffffffffffff16021790555080600460006101000a81548173ffffffffffffffffffffffffffffffffffffffff021916908373ffffffffffffffffffffffffffffffffffffffff160217905550505050506200026a565b600081519050620001aa8162000250565b92915050565b60008060008060808587031215620001c757600080fd5b6000620001d78782880162000199565b9450506020620001ea8782880162000199565b9350506040620001fd8782880162000199565b9250506060620002108782880162000199565b91505092959194509250565b6000620002298262000230565b9050919050565b600073ffffffffffffffffffffffffffffffffffffffff82169050919050565b6200025b816200021c565b81146200026757600080fd5b50565b61157c806200027a6000396000f3fe6080604052600436106100345760003560e01c8063781ba87414610036578063c72c4d101461005f578063ee8725581461008a575b005b34801561004257600080fd5b5061005d60048036036100589190810190610d9c565b6100b3565b005b34801561006b57600080fd5b506100746101c4565b6040516100819190611282565b60405180910390f35b34801561009657600080fd5b506100b160048036036100ac9190810190610e1c565b6101e9565b005b60007324a42fd28c976a61df5d00d0599c34c4f90748c873ffffffffffffffffffffffffffffffffffffffff16630261bf8b6040518163ffffffff1660e01b815260040160206040518083038186803b15801561010f57600080fd5b505afa158015610123573d6000803e3d6000fd5b505050506040513d601f19601f820116820180604052506101479190810190610d4a565b90508073ffffffffffffffffffffffffffffffffffffffff16635cffe9de87878787876040518663ffffffff1660e01b815260040161018a959493929190611150565b600060405180830381600087803b1580156101a457600080fd5b505af11580156101b8573d6000803e3d6000fd5b50505050505050505050565b6000809054906101000a900473ffffffffffffffffffffffffffffffffffffffff1681565b6000600360009054906101000a900473ffffffffffffffffffffffffffffffffffffffff1673ffffffffffffffffffffffffffffffffffffffff166370a08231306040518263ffffffff1660e01b8152600401610246919061110c565b60206040518083038186803b15801561025e57600080fd5b505afa158015610272573d6000803e3d6000fd5b505050506040513d601f19601f820116820180604052506102969190810190610ec5565b9050600360009054906101000a900473ffffffffffffffffffffffffffffffffffffffff1673ffffffffffffffffffffffffffffffffffffffff1663095ea7b3600160009054906101000a900473ffffffffffffffffffffffffffffffffffffffff16836040518363ffffffff1660e01b815260040161031792919061119e565b602060405180830381600087803b15801561033157600080fd5b505af1158015610345573d6000803e3d6000fd5b505050506040513d601f19601f820116820180604052506103699190810190610e9c565b5060006060600160009054906101000a900473ffffffffffffffffffffffffffffffffffffffff1673ffffffffffffffffffffffffffffffffffffffff1663085e2c5b736b175474e89094c44da98b954eedeac495271d0f73eeeeeeeeeeeeeeeeeeeeeeeeeeeeeeeeeeeeeeee86600a60006040518663ffffffff1660e01b81526004016103fb9594939291906111c7565b60006040518083038186803b15801561041357600080fd5b505afa158015610427573d6000803e3d6000fd5b505050506040513d6000823e3d601f19601f820116820180604052506104509190810190610eee565b91509150600160009054906101000a900473ffffffffffffffffffffffffffffffffffffffff1673ffffffffffffffffffffffffffffffffffffffff1663e2a7515e736b175474e89094c44da98b954eedeac495271d0f73eeeeeeeeeeeeeeeeeeeeeeeeeeeeeeeeeeeeeeee86868660006040518763ffffffff1660e01b81526004016104e29695949392919061121a565b600060405180830381600087803b1580156104fc57600080fd5b505af1158015610510573d6000803e3d6000fd5b50505050600160009054906101000a900473ffffffffffffffffffffffffffffffffffffffff1673ffffffffffffffffffffffffffffffffffffffff1663085e2c5b73eeeeeeeeeeeeeeeeeeeeeeeeeeeeeeeeeeeeeeee736b175474e89094c44da98b954eedeac495271d0f47600a60006040518663ffffffff1660e01b81526004016105a19594939291906111c7565b60006040518083038186803b1580156105b957600080fd5b505afa1580156105cd573d6000803e3d6000fd5b505050506040513d6000823e3d601f19601f820116820180604052506105f69190810190610eee565b5050600160009054906101000a900473ffffffffffffffffffffffffffffffffffffffff1673ffffffffffffffffffffffffffffffffffffffff1663e2a7515e4773eeeeeeeeeeeeeeeeeeeeeeeeeeeeeeeeeeeeeeee736b175474e89094c44da98b954eedeac495271d0f47878760006040518863ffffffff1660e01b81526004016106879695949392919061121a565b6000604051808303818588803b1580156106a057600080fd5b505af11580156106b4573d6000803e3d6000fd5b50505050506106cc86886109ad90919063ffffffff16565b600360009054906101000a900473ffffffffffffffffffffffffffffffffffffffff1673ffffffffffffffffffffffffffffffffffffffff166370a08231306040518263ffffffff1660e01b8152600401610727919061110c565b60206040518083038186803b15801561073f57600080fd5b505afa158015610753573d6000803e3d6000fd5b505050506040513d601f19601f820116820180604052506107779190810190610ec5565b10156107b8576040517f08c379a00000000000000000000000000000000000000000000000000000000081526004016107af906112bd565b60405180910390fd5b60006107cd87896109ad90919063ffffffff16565b600360009054906101000a900473ffffffffffffffffffffffffffffffffffffffff1673ffffffffffffffffffffffffffffffffffffffff166370a08231306040518263ffffffff1660e01b8152600401610828919061110c565b60206040518083038186803b15801561084057600080fd5b505afa158015610854573d6000803e3d6000fd5b505050506040513d601f19601f820116820180604052506108789190810190610ec5565b039050600360009054906101000a900473ffffffffffffffffffffffffffffffffffffffff1673ffffffffffffffffffffffffffffffffffffffff1663a9059cbb600460009054906101000a900473ffffffffffffffffffffffffffffffffffffffff16836040518363ffffffff1660e01b81526004016108fa92919061119e565b602060405180830381600087803b15801561091457600080fd5b505af1158015610928573d6000803e3d6000fd5b505050506040513d601f19601f8201168201806040525061094c9190810190610e9c565b507f66668f78d5c3d3047f53675c87d17d41b32abb8eba3ca51b109db15bc29ece34814260405161097e9291906112dd565b60405180910390a16109a28961099d898b6109ad90919063ffffffff16565b610a02565b505050505050505050565b6000808284019050838110156109f8576040517f08c379a00000000000000000000000000000000000000000000000000000000081526004016109ef9061129d565b60405180910390fd5b8091505092915050565b60008060009054906101000a900473ffffffffffffffffffffffffffffffffffffffff1673ffffffffffffffffffffffffffffffffffffffff1663ed6ff7606040518163ffffffff1660e01b815260040160206040518083038186803b158015610a6b57600080fd5b505afa158015610a7f573d6000803e3d6000fd5b505050506040513d601f19601f82011682018060405250610aa39190810190610d73565b9050610ab0818484610ab5565b505050565b73eeeeeeeeeeeeeeeeeeeeeeeeeeeeeeeeeeeeeeee73ffffffffffffffffffffffffffffffffffffffff168273ffffffffffffffffffffffffffffffffffffffff161415610b6b578273ffffffffffffffffffffffffffffffffffffffff1681604051610b21906110f7565b60006040518083038185875af1925050503d8060008114610b5e576040519150601f19603f3d011682016040523d82523d6000602084013e610b63565b606091505b505050610bfa565b8173ffffffffffffffffffffffffffffffffffffffff1663a9059cbb84836040518363ffffffff1660e01b8152600401610ba6929190611127565b602060405180830381600087803b158015610bc057600080fd5b505af1158015610bd4573d6000803e3d6000fd5b505050506040513d601f19601f82011682018060405250610bf89190810190610e9c565b505b505050565b600081359050610c0e816114dd565b92915050565b600081519050610c23816114dd565b92915050565b600081519050610c38816114f4565b92915050565b600082601f830112610c4f57600080fd5b8151610c62610c5d82611333565b611306565b91508181835260208401935060208101905083856020840282011115610c8757600080fd5b60005b83811015610cb75781610c9d8882610d35565b845260208401935060208301925050600181019050610c8a565b5050505092915050565b600081519050610cd08161150b565b92915050565b60008083601f840112610ce857600080fd5b8235905067ffffffffffffffff811115610d0157600080fd5b602083019150836001820283011115610d1957600080fd5b9250929050565b600081359050610d2f81611522565b92915050565b600081519050610d4481611522565b92915050565b600060208284031215610d5c57600080fd5b6000610d6a84828501610c14565b91505092915050565b600060208284031215610d8557600080fd5b6000610d9384828501610c29565b91505092915050565b600080600080600060808688031215610db457600080fd5b6000610dc288828901610bff565b9550506020610dd388828901610bff565b9450506040610de488828901610d20565b935050606086013567ffffffffffffffff811115610e0157600080fd5b610e0d88828901610cd6565b92509250509295509295909350565b600080600080600060808688031215610e3457600080fd5b6000610e4288828901610bff565b9550506020610e5388828901610d20565b9450506040610e6488828901610d20565b935050606086013567ffffffffffffffff811115610e8157600080fd5b610e8d88828901610cd6565b92509250509295509295909350565b600060208284031215610eae57600080fd5b6000610ebc84828501610cc1565b91505092915050565b600060208284031215610ed757600080fd5b6000610ee584828501610d35565b91505092915050565b60008060408385031215610f0157600080fd5b6000610f0f85828601610d35565b925050602083015167ffffffffffffffff811115610f2c57600080fd5b610f3885828601610c3e565b9150509250929050565b6000610f4e83836110d9565b60208301905092915050565b610f638161141b565b82525050565b610f72816113c1565b82525050565b6000610f838261136b565b610f8d8185611383565b9350610f988361135b565b8060005b83811015610fc9578151610fb08882610f42565b9750610fbb83611376565b925050600181019050610f9c565b5085935050505092915050565b6000610fe28385611394565b9350610fef8385846114bd565b610ff8836114cc565b840190509392505050565b61100c8161142d565b82525050565b61101b81611451565b82525050565b61102a81611475565b82525050565b61103981611487565b82525050565b600061104c601b836113b0565b91507f536166654d6174683a206164646974696f6e206f766572666c6f7700000000006000830152602082019050919050565b600061108c6000836113a5565b9150600082019050919050565b60006110a6601f836113b0565b91507f4e6f7420656e6f7567682066756e647320746f207265706179206c6f616e21006000830152602082019050919050565b6110e281611411565b82525050565b6110f181611411565b82525050565b60006111028261107f565b9150819050919050565b60006020820190506111216000830184610f5a565b92915050565b600060408201905061113c6000830185610f5a565b61114960208301846110e8565b9392505050565b60006080820190506111656000830188610f69565b6111726020830187610f69565b61117f60408301866110e8565b8181036060830152611192818486610fd6565b90509695505050505050565b60006040820190506111b36000830185610f69565b6111c060208301846110e8565b9392505050565b600060a0820190506111dc6000830188611003565b6111e96020830187611003565b6111f660408301866110e8565b6112036060830185611030565b6112106080830184611021565b9695505050505050565b600060c08201905061122f6000830189611003565b61123c6020830188611003565b61124960408301876110e8565b61125660608301866110e8565b81810360808301526112688185610f78565b905061127760a0830184611021565b979650505050505050565b60006020820190506112976000830184611012565b92915050565b600060208201905081810360008301526112b68161103f565b9050919050565b600060208201905081810360008301526112d681611099565b9050919050565b60006040820190506112f260008301856110e8565b6112ff60208301846110e8565b9392505050565b6000604051905081810181811067ffffffffffffffff8211171561132957600080fd5b8060405250919050565b600067ffffffffffffffff82111561134a57600080fd5b602082029050602081019050919050565b6000819050602082019050919050565b600081519050919050565b6000602082019050919050565b600082825260208201905092915050565b600082825260208201905092915050565b600081905092915050565b600082825260208201905092915050565b60006113cc826113f1565b9050919050565b60006113de826113f1565b9050919050565b60008115159050919050565b600073ffffffffffffffffffffffffffffffffffffffff82169050919050565b6000819050919050565b600061142682611499565b9050919050565b60006114388261143f565b9050919050565b600061144a826113f1565b9050919050565b600061145c82611463565b9050919050565b600061146e826113f1565b9050919050565b600061148082611411565b9050919050565b600061149282611411565b9050919050565b60006114a4826114ab565b9050919050565b60006114b6826113f1565b9050919050565b82818337600083830152505050565b6000601f19601f8301169050919050565b6114e6816113c1565b81146114f157600080fd5b50565b6114fd816113d3565b811461150857600080fd5b50565b611514816113e5565b811461151f57600080fd5b50565b61152b81611411565b811461153657600080fd5b5056fea365627a7a72315820ec7400a9178b23ac025c0f76c19557c11e4671aa8ef08b6c6f8dc61bbae6df636c6578706572696d656e74616cf564736f6c63430005100040",
  "source": "pragma solidity ^0.5.0;\npragma experimental ABIEncoderV2;\n\nimport \"@studydefi/money-legos/aave/contracts/ILendingPool.sol\";\nimport \"@studydefi/money-legos/aave/contracts/IFlashLoanReceiver.sol\";\nimport \"@studydefi/money-legos/aave/contracts/FlashloanReceiverBase.sol\";\nimport \"@studydefi/money-legos/onesplit/contracts/IOneSplit.sol\";\nimport \"@openzeppelin/contracts/token/ERC20/IERC20.sol\";\n\ncontract ContractWithFlashLoan is FlashLoanReceiverBase {\n    address constant AaveLendingPoolAddressProviderAddress = 0x24a42fD28C976A61Df5D00D0599C34c4f90748c8; \n    address constant ethaddress = 0xEeeeeEeeeEeEeeEeEeEeeEEEeeeeEeeeeeeeEEeE;\n    address constant daiaddress = 0x6B175474E89094C44Da98b954EedeAC495271d0F;\n\n    event NewArbitrage (\n      uint profit,\n      uint date\n    );\n\n    IOneSplit onesplit;\n    IERC20 eth;\n    IERC20 dai;\n    address beneficiary;\n\n    constructor(\n        address onesplitAddress,\n        address ethAddress,\n        address daiAddress,\n        address beneficiaryAddress\n    ) public {\n      onesplit = IOneSplit(onesplitAddress);\n      eth = IERC20(ethAddress);\n      dai = IERC20(daiAddress);\n      beneficiary = beneficiaryAddress;\n    }\n\n        // Function is called when loan is given to contract\n        // Do your logic here, e.g. arbitrage, liquidate compound, etc\n        // Note that if you don't do your logic, it WILL fail\n\n    function executeOperation(\n        address _reserve,\n        uint _amount,\n        uint _fee,\n        bytes calldata _params\n    ) external {\n \n        uint256 balanceDai = dai.balanceOf(address(this));\n\n          //Buy ETH on OneSplit\n          dai.approve(address(onesplit), balanceDai); \n          (uint256 returnAmount, uint256[] memory distribution) = IOneSplit(\n              onesplit\n          ).getExpectedReturn(\n              IERC20(daiaddress),\n              IERC20(ethaddress),\n              balanceDai,\n              10,\n              0\n          );\n\n          IOneSplit(onesplit).swap(\n              IERC20(daiaddress),\n              IERC20(ethaddress), \n              balanceDai,\n              returnAmount,\n              distribution,\n              0\n          );\n\n          //Sell ETH on OneSplit\n          IOneSplit(\n              onesplit\n          ).getExpectedReturn(\n              IERC20(ethaddress),\n              IERC20(daiaddress),  \n              address(this).balance,\n              10,\n              0\n          );\n\n        IOneSplit(onesplit).swap.value(address(this).balance)(\n              IERC20(ethaddress),\n              IERC20(daiaddress),  \n              address(this).balance,\n              returnAmount,\n              distribution,\n              0\n          );\n\n        require(\n            dai.balanceOf(address(this)) >= (_amount.add(_fee)),\n            \"Not enough funds to repay loan!\"\n        );\n\n        uint profit = dai.balanceOf(address(this)) - (_amount.add(_fee)); \n        dai.transfer(beneficiary, profit);\n        emit NewArbitrage(profit, now);\n    \n        transferFundsBackToPoolInternal(_reserve, _amount.add(_fee));\n    }\n\n    // Entry point\n    function initateFlashLoan(\n        address reserve,\n        address assetToFlashLoan,\n        uint256 amountToLoan, \n        bytes calldata _params\n    ) external {\n        // Get Aave lending pool\n        ILendingPool lendingPool = ILendingPool(\n            ILendingPoolAddressesProvider(AaveLendingPoolAddressProviderAddress)\n                .getLendingPool()\n        );\n\n        // Ask for a flashloan\n        // LendingPool will now execute the `executeOperation` function above\n        lendingPool.flashLoan(\n            reserve, // Which address to callback into\n            assetToFlashLoan,\n            amountToLoan,\n            _params    \n        );\n    }\n}\n",
  "sourcePath": "/home/gokevin/profitable-flashloans/contracts/ContractWithFlashLoan.sol",
  "compiler": {
    "name": "solc",
    "version": "0.5.16+commit.9c3226ce.Emscripten.clang"
  },
  "schemaVersion": "3.2.5",
  "updatedAt": "2020-09-29T21:54:20.891Z",
  "networkType": "ethereum",
  "devdoc": {
    "methods": {}
  },
  "userdoc": {
    "methods": {}
  }
}