{
  "contractName": "ContractWithFlashLoan",
  "abi": [
    {
      "inputs": [
        {
          "internalType": "address",
          "name": "ethAddress",
          "type": "address"
        },
        {
          "internalType": "address",
          "name": "daiAddress",
          "type": "address"
        },
        {
          "internalType": "address",
          "name": "beneficiaryAddress",
          "type": "address"
        }
      ],
      "payable": false,
      "stateMutability": "nonpayable",
      "type": "constructor"
    },
    {
      "anonymous": false,
      "inputs": [
        {
          "indexed": false,
          "internalType": "uint256",
          "name": "profit",
          "type": "uint256"
        },
        {
          "indexed": false,
          "internalType": "uint256",
          "name": "date",
          "type": "uint256"
        }
      ],
      "name": "NewArbitrage",
      "type": "event"
    },
    {
      "payable": true,
      "stateMutability": "payable",
      "type": "fallback"
    },
    {
      "constant": true,
      "inputs": [],
      "name": "addressesProvider",
      "outputs": [
        {
          "internalType": "contract ILendingPoolAddressesProvider",
          "name": "",
          "type": "address"
        }
      ],
      "payable": false,
      "stateMutability": "view",
      "type": "function"
    },
    {
      "constant": false,
      "inputs": [
        {
          "internalType": "address",
          "name": "_reserve",
          "type": "address"
        },
        {
          "internalType": "uint256",
          "name": "_amount",
          "type": "uint256"
        },
        {
          "internalType": "uint256",
          "name": "_fee",
          "type": "uint256"
        },
        {
          "internalType": "bytes",
          "name": "_params",
          "type": "bytes"
        }
      ],
      "name": "executeOperation",
      "outputs": [],
      "payable": false,
      "stateMutability": "nonpayable",
      "type": "function"
    },
    {
      "constant": false,
      "inputs": [
        {
          "internalType": "address",
          "name": "reserve",
          "type": "address"
        },
        {
          "internalType": "address",
          "name": "assetToFlashLoan",
          "type": "address"
        },
        {
          "internalType": "uint256",
          "name": "amountToLoan",
          "type": "uint256"
        },
        {
          "internalType": "bytes",
          "name": "_params",
          "type": "bytes"
        }
      ],
      "name": "initateFlashLoan",
      "outputs": [],
      "payable": false,
      "stateMutability": "nonpayable",
      "type": "function"
    }
  ],
  "bytecode": "0x60806040527324a42fd28c976a61df5d00d0599c34c4f90748c86000806101000a81548173ffffffffffffffffffffffffffffffffffffffff021916908373ffffffffffffffffffffffffffffffffffffffff1602179055503480156200006557600080fd5b50604051620015443803806200154483398181016040526200008b91908101906200016e565b82600160006101000a81548173ffffffffffffffffffffffffffffffffffffffff021916908373ffffffffffffffffffffffffffffffffffffffff16021790555081600260006101000a81548173ffffffffffffffffffffffffffffffffffffffff021916908373ffffffffffffffffffffffffffffffffffffffff16021790555080600360006101000a81548173ffffffffffffffffffffffffffffffffffffffff021916908373ffffffffffffffffffffffffffffffffffffffff16021790555050505062000212565b6000815190506200016881620001f8565b92915050565b6000806000606084860312156200018457600080fd5b6000620001948682870162000157565b9350506020620001a78682870162000157565b9250506040620001ba8682870162000157565b9150509250925092565b6000620001d182620001d8565b9050919050565b600073ffffffffffffffffffffffffffffffffffffffff82169050919050565b6200020381620001c4565b81146200020f57600080fd5b50565b61132280620002226000396000f3fe6080604052600436106100345760003560e01c8063781ba87414610036578063c72c4d101461005f578063ee8725581461008a575b005b34801561004257600080fd5b5061005d60048036036100589190810190610b59565b6100b3565b005b34801561006b57600080fd5b506100746101c4565b604051610081919061105c565b60405180910390f35b34801561009657600080fd5b506100b160048036036100ac9190810190610bd9565b6101e9565b005b60007324a42fd28c976a61df5d00d0599c34c4f90748c873ffffffffffffffffffffffffffffffffffffffff16630261bf8b6040518163ffffffff1660e01b815260040160206040518083038186803b15801561010f57600080fd5b505afa158015610123573d6000803e3d6000fd5b505050506040513d601f19601f820116820180604052506101479190810190610b30565b90508073ffffffffffffffffffffffffffffffffffffffff16635cffe9de87878787876040518663ffffffff1660e01b815260040161018a959493929190610f2a565b600060405180830381600087803b1580156101a457600080fd5b505af11580156101b8573d6000803e3d6000fd5b50505050505050505050565b6000809054906101000a900473ffffffffffffffffffffffffffffffffffffffff1681565b6101f16109af565b82826102009190810190610c82565b90506000600260009054906101000a900473ffffffffffffffffffffffffffffffffffffffff1673ffffffffffffffffffffffffffffffffffffffff166370a08231306040518263ffffffff1660e01b815260040161025f9190610f0f565b60206040518083038186803b15801561027757600080fd5b505afa15801561028b573d6000803e3d6000fd5b505050506040513d601f19601f820116820180604052506102af9190810190610cab565b9050600260009054906101000a900473ffffffffffffffffffffffffffffffffffffffff1673ffffffffffffffffffffffffffffffffffffffff1663095ea7b373c586bef4a0992c495cf22e1aeee4e446cecdee0e836040518363ffffffff1660e01b8152600401610322929190610f78565b602060405180830381600087803b15801561033c57600080fd5b505af1158015610350573d6000803e3d6000fd5b505050506040513d601f19601f820116820180604052506103749190810190610c59565b506000606073c586bef4a0992c495cf22e1aeee4e446cecdee0e73ffffffffffffffffffffffffffffffffffffffff1663085e2c5b600260009054906101000a900473ffffffffffffffffffffffffffffffffffffffff1673eeeeeeeeeeeeeeeeeeeeeeeeeeeeeeeeeeeeeeee86600a60006040518663ffffffff1660e01b8152600401610406959493929190610fa1565b60006040518083038186803b15801561041e57600080fd5b505afa158015610432573d6000803e3d6000fd5b505050506040513d6000823e3d601f19601f8201168201806040525061045b9190810190610cd4565b9150915073c586bef4a0992c495cf22e1aeee4e446cecdee0e73ffffffffffffffffffffffffffffffffffffffff1663e2a7515e600260009054906101000a900473ffffffffffffffffffffffffffffffffffffffff1673eeeeeeeeeeeeeeeeeeeeeeeeeeeeeeeeeeeeeeee86868660006040518763ffffffff1660e01b81526004016104ed96959493929190610ff4565b600060405180830381600087803b15801561050757600080fd5b505af115801561051b573d6000803e3d6000fd5b5050505073c586bef4a0992c495cf22e1aeee4e446cecdee0e73ffffffffffffffffffffffffffffffffffffffff1663085e2c5b73eeeeeeeeeeeeeeeeeeeeeeeeeeeeeeeeeeeeeeee600260009054906101000a900473ffffffffffffffffffffffffffffffffffffffff1647600a60006040518663ffffffff1660e01b81526004016105ac959493929190610fa1565b60006040518083038186803b1580156105c457600080fd5b505afa1580156105d8573d6000803e3d6000fd5b505050506040513d6000823e3d601f19601f820116820180604052506106019190810190610cd4565b505073c586bef4a0992c495cf22e1aeee4e446cecdee0e73ffffffffffffffffffffffffffffffffffffffff1663e2a7515e73eeeeeeeeeeeeeeeeeeeeeeeeeeeeeeeeeeeeeeee600260009054906101000a900473ffffffffffffffffffffffffffffffffffffffff1647868660006040518763ffffffff1660e01b815260040161069196959493929190610ff4565b600060405180830381600087803b1580156106ab57600080fd5b505af11580156106bf573d6000803e3d6000fd5b505050508360000151600260009054906101000a900473ffffffffffffffffffffffffffffffffffffffff1673ffffffffffffffffffffffffffffffffffffffff166370a08231306040518263ffffffff1660e01b81526004016107239190610f0f565b60206040518083038186803b15801561073b57600080fd5b505afa15801561074f573d6000803e3d6000fd5b505050506040513d601f19601f820116820180604052506107739190810190610cab565b10156107b4576040517f08c379a00000000000000000000000000000000000000000000000000000000081526004016107ab90611077565b60405180910390fd5b60008460000151600260009054906101000a900473ffffffffffffffffffffffffffffffffffffffff1673ffffffffffffffffffffffffffffffffffffffff166370a08231306040518263ffffffff1660e01b81526004016108169190610f0f565b60206040518083038186803b15801561082e57600080fd5b505afa158015610842573d6000803e3d6000fd5b505050506040513d601f19601f820116820180604052506108669190810190610cab565b039050600260009054906101000a900473ffffffffffffffffffffffffffffffffffffffff1673ffffffffffffffffffffffffffffffffffffffff1663a9059cbb600360009054906101000a900473ffffffffffffffffffffffffffffffffffffffff16836040518363ffffffff1660e01b81526004016108e8929190610f78565b602060405180830381600087803b15801561090257600080fd5b505af1158015610916573d6000803e3d6000fd5b505050506040513d601f19601f8201168201806040525061093a9190810190610c59565b507f66668f78d5c3d3047f53675c87d17d41b32abb8eba3ca51b109db15bc29ece34814260405161096c9291906110b7565b60405180910390a16040517f08c379a00000000000000000000000000000000000000000000000000000000081526004016109a690611097565b60405180910390fd5b6040518060200160405280600081525090565b6000813590506109d18161129a565b92915050565b6000815190506109e68161129a565b92915050565b600082601f8301126109fd57600080fd5b8151610a10610a0b8261110d565b6110e0565b91508181835260208401935060208101905083856020840282011115610a3557600080fd5b60005b83811015610a655781610a4b8882610b1b565b845260208401935060208301925050600181019050610a38565b5050505092915050565b600081519050610a7e816112b1565b92915050565b60008083601f840112610a9657600080fd5b8235905067ffffffffffffffff811115610aaf57600080fd5b602083019150836001820283011115610ac757600080fd5b9250929050565b600060208284031215610ae057600080fd5b610aea60206110e0565b90506000610afa84828501610b06565b60008301525092915050565b600081359050610b15816112c8565b92915050565b600081519050610b2a816112c8565b92915050565b600060208284031215610b4257600080fd5b6000610b50848285016109d7565b91505092915050565b600080600080600060808688031215610b7157600080fd5b6000610b7f888289016109c2565b9550506020610b90888289016109c2565b9450506040610ba188828901610b06565b935050606086013567ffffffffffffffff811115610bbe57600080fd5b610bca88828901610a84565b92509250509295509295909350565b600080600080600060808688031215610bf157600080fd5b6000610bff888289016109c2565b9550506020610c1088828901610b06565b9450506040610c2188828901610b06565b935050606086013567ffffffffffffffff811115610c3e57600080fd5b610c4a88828901610a84565b92509250509295509295909350565b600060208284031215610c6b57600080fd5b6000610c7984828501610a6f565b91505092915050565b600060208284031215610c9457600080fd5b6000610ca284828501610ace565b91505092915050565b600060208284031215610cbd57600080fd5b6000610ccb84828501610b1b565b91505092915050565b60008060408385031215610ce757600080fd5b6000610cf585828601610b1b565b925050602083015167ffffffffffffffff811115610d1257600080fd5b610d1e858286016109ec565b9150509250929050565b6000610d348383610ef1565b60208301905092915050565b610d49816111d8565b82525050565b610d5881611190565b82525050565b6000610d6982611145565b610d73818561115d565b9350610d7e83611135565b8060005b83811015610daf578151610d968882610d28565b9750610da183611150565b925050600181019050610d82565b5085935050505092915050565b6000610dc8838561116e565b9350610dd583858461127a565b610dde83611289565b840190509392505050565b610df2816111ea565b82525050565b610e018161120e565b82525050565b610e1081611232565b82525050565b610e1f81611244565b82525050565b6000610e3260248361117f565b91507f4e6f7420656e6f7567682066756e647320746f2072657061792064796478206c60008301527f6f616e21000000000000000000000000000000000000000000000000000000006020830152604082019050919050565b6000610e9860338361117f565b91507f48656c6c6f2c20796f7520686176656e277420696d706c656d656e746564207960008301527f6f757220666c6173686c6f616e206c6f676963000000000000000000000000006020830152604082019050919050565b610efa816111ce565b82525050565b610f09816111ce565b82525050565b6000602082019050610f246000830184610d40565b92915050565b6000608082019050610f3f6000830188610d4f565b610f4c6020830187610d4f565b610f596040830186610f00565b8181036060830152610f6c818486610dbc565b90509695505050505050565b6000604082019050610f8d6000830185610d4f565b610f9a6020830184610f00565b9392505050565b600060a082019050610fb66000830188610de9565b610fc36020830187610de9565b610fd06040830186610f00565b610fdd6060830185610e16565b610fea6080830184610e07565b9695505050505050565b600060c0820190506110096000830189610de9565b6110166020830188610de9565b6110236040830187610f00565b6110306060830186610f00565b81810360808301526110428185610d5e565b905061105160a0830184610e07565b979650505050505050565b60006020820190506110716000830184610df8565b92915050565b6000602082019050818103600083015261109081610e25565b9050919050565b600060208201905081810360008301526110b081610e8b565b9050919050565b60006040820190506110cc6000830185610f00565b6110d96020830184610f00565b9392505050565b6000604051905081810181811067ffffffffffffffff8211171561110357600080fd5b8060405250919050565b600067ffffffffffffffff82111561112457600080fd5b602082029050602081019050919050565b6000819050602082019050919050565b600081519050919050565b6000602082019050919050565b600082825260208201905092915050565b600082825260208201905092915050565b600082825260208201905092915050565b600061119b826111ae565b9050919050565b60008115159050919050565b600073ffffffffffffffffffffffffffffffffffffffff82169050919050565b6000819050919050565b60006111e382611256565b9050919050565b60006111f5826111fc565b9050919050565b6000611207826111ae565b9050919050565b600061121982611220565b9050919050565b600061122b826111ae565b9050919050565b600061123d826111ce565b9050919050565b600061124f826111ce565b9050919050565b600061126182611268565b9050919050565b6000611273826111ae565b9050919050565b82818337600083830152505050565b6000601f19601f8301169050919050565b6112a381611190565b81146112ae57600080fd5b50565b6112ba816111a2565b81146112c557600080fd5b50565b6112d1816111ce565b81146112dc57600080fd5b5056fea365627a7a72315820b6a3edfd5f7a861a511c3976a78567a3b3aabed4eaa0dc4b9bf6360e5d7970ac6c6578706572696d656e74616cf564736f6c63430005100040",
  "source": "pragma solidity ^0.5.0;\npragma experimental ABIEncoderV2;\n\nimport \"@studydefi/money-legos/aave/contracts/ILendingPool.sol\";\nimport \"@studydefi/money-legos/aave/contracts/IFlashLoanReceiver.sol\";\nimport \"@studydefi/money-legos/aave/contracts/FlashloanReceiverBase.sol\";\nimport \"@studydefi/money-legos/onesplit/contracts/IOneSplit.sol\";\nimport \"@openzeppelin/contracts/token/ERC20/IERC20.sol\";\n\ncontract ContractWithFlashLoan is FlashLoanReceiverBase {\n    address constant daiaddress = 0x6B175474E89094C44Da98b954EedeAC495271d0F;\n    address constant ethaddress = 0xEeeeeEeeeEeEeeEeEeEeeEEEeeeeEeeeeeeeEEeE;\n    address constant onesplitaddress = 0xC586BeF4a0992C495Cf22e1aeEE4E446CECDee0E;\n    address constant AaveLendingPoolAddressProviderAddress = 0x24a42fD28C976A61Df5D00D0599C34c4f90748c8; \n\n    struct ArbInfo {\n        uint repayAmount;\n    }\n\n    event NewArbitrage (\n      uint profit,\n      uint date\n    );\n\n    IERC20 eth;\n    IERC20 dai;\n    address beneficiary;\n\n    constructor(\n        address ethAddress,\n        address daiAddress,\n        address beneficiaryAddress\n    ) public {\n      eth = IERC20(ethAddress);\n      dai = IERC20(daiAddress);\n      beneficiary = beneficiaryAddress;\n    }\n\n        // Function is called when loan is given to contract\n        // Do your logic here, e.g. arbitrage, liquidate compound, etc\n        // Note that if you don't do your logic, it WILL fail\n\n    function executeOperation(\n        address _reserve,\n        uint _amount,\n        uint _fee,\n        bytes calldata _params\n    ) external {\n \n        ArbInfo memory arbInfo = abi.decode(_params, (ArbInfo));\n        uint256 balanceDai = dai.balanceOf(address(this));\n\n          //Buy ETH on OneSplit\n          dai.approve(address(onesplitaddress), balanceDai); \n          (uint256 returnAmount, uint256[] memory distribution) = IOneSplit(\n              onesplitaddress\n          ).getExpectedReturn(\n              dai,\n              IERC20(ethaddress),\n              balanceDai,\n              10,\n              0\n          );\n\n          IOneSplit(onesplitaddress).swap(\n              dai,\n              IERC20(ethaddress),  \n              balanceDai,\n              returnAmount,\n              distribution,\n              0\n          );\n\n          //Sell ETH on OneSplit\n          IOneSplit(\n              onesplitaddress\n          ).getExpectedReturn(\n              IERC20(ethaddress),\n              dai,  \n              address(this).balance,\n              10,\n              0\n          );\n\n          IOneSplit(onesplitaddress).swap(\n              IERC20(ethaddress),\n              dai,  \n              address(this).balance,\n              returnAmount,\n              distribution,\n              0\n          );\n        \n\n        require(\n            dai.balanceOf(address(this)) >= arbInfo.repayAmount,\n            \"Not enough funds to repay dydx loan!\"\n        );\n\n        uint profit = dai.balanceOf(address(this)) - arbInfo.repayAmount; \n        dai.transfer(beneficiary, profit);\n        emit NewArbitrage(profit, now);\n    \n        // TODO: Change line below\n        revert(\"Hello, you haven't implemented your flashloan logic\");\n\n        transferFundsBackToPoolInternal(_reserve, _amount.add(_fee));\n    }\n\n    // Entry point\n    function initateFlashLoan(\n        address reserve,\n        address assetToFlashLoan,\n        uint256 amountToLoan, \n        bytes calldata _params\n    ) external {\n        // Get Aave lending pool\n        ILendingPool lendingPool = ILendingPool(\n            ILendingPoolAddressesProvider(AaveLendingPoolAddressProviderAddress)\n                .getLendingPool()\n        );\n\n        // Ask for a flashloan\n        // LendingPool will now execute the `executeOperation` function above\n        lendingPool.flashLoan(\n            reserve, // Which address to callback into\n            assetToFlashLoan,\n            amountToLoan,\n            _params    \n        );\n    }\n}\n",
  "sourcePath": "/home/gokevin/profitable-flashloans/contracts/ContractWithFlashLoan.sol",
  "compiler": {
    "name": "solc",
    "version": "0.5.16+commit.9c3226ce.Emscripten.clang"
  },
  "schemaVersion": "3.2.5",
  "updatedAt": "2020-09-16T23:40:02.251Z",
  "devdoc": {
    "methods": {}
  },
  "userdoc": {
    "methods": {}
  }
}