{
  "contractName": "Flashloan",
  "abi": [
    {
      "inputs": [
        {
          "internalType": "address",
          "name": "kyberAddress",
          "type": "address"
        },
        {
          "internalType": "address",
          "name": "daiAddress",
          "type": "address"
        },
        {
          "internalType": "address",
          "name": "daiFaucetAddress",
          "type": "address"
        },
        {
          "internalType": "address",
          "name": "beneficiaryAddress",
          "type": "address"
        }
      ],
      "payable": false,
      "stateMutability": "nonpayable",
      "type": "constructor"
    },
    {
      "anonymous": false,
      "inputs": [
        {
          "indexed": false,
          "internalType": "enum Flashloan.Direction",
          "name": "direction",
          "type": "uint8"
        },
        {
          "indexed": false,
          "internalType": "uint256",
          "name": "profit",
          "type": "uint256"
        },
        {
          "indexed": false,
          "internalType": "uint256",
          "name": "date",
          "type": "uint256"
        }
      ],
      "name": "NewArbitrage",
      "type": "event"
    },
    {
      "payable": true,
      "stateMutability": "payable",
      "type": "fallback"
    },
    {
      "constant": false,
      "inputs": [
        {
          "internalType": "address",
          "name": "sender",
          "type": "address"
        },
        {
          "components": [
            {
              "internalType": "address",
              "name": "owner",
              "type": "address"
            },
            {
              "internalType": "uint256",
              "name": "number",
              "type": "uint256"
            }
          ],
          "internalType": "struct Account.Info",
          "name": "account",
          "type": "tuple"
        },
        {
          "internalType": "bytes",
          "name": "data",
          "type": "bytes"
        }
      ],
      "name": "callFunction",
      "outputs": [],
      "payable": false,
      "stateMutability": "nonpayable",
      "type": "function"
    },
    {
      "constant": false,
      "inputs": [
        {
          "internalType": "address",
          "name": "_solo",
          "type": "address"
        },
        {
          "internalType": "address",
          "name": "_token",
          "type": "address"
        },
        {
          "internalType": "uint256",
          "name": "_amount",
          "type": "uint256"
        },
        {
          "internalType": "enum Flashloan.Direction",
          "name": "_direction",
          "type": "uint8"
        }
      ],
      "name": "initiateFlashloan",
      "outputs": [],
      "payable": false,
      "stateMutability": "nonpayable",
      "type": "function"
    }
  ],
  "bytecode": "0x60806040523480156200001157600080fd5b5060405162001d9338038062001d9383398181016040526200003791908101906200017d565b836000806101000a81548173ffffffffffffffffffffffffffffffffffffffff021916908373ffffffffffffffffffffffffffffffffffffffff16021790555082600160006101000a81548173ffffffffffffffffffffffffffffffffffffffff021916908373ffffffffffffffffffffffffffffffffffffffff160217905550600260009054906101000a900473ffffffffffffffffffffffffffffffffffffffff16600260006101000a81548173ffffffffffffffffffffffffffffffffffffffff021916908373ffffffffffffffffffffffffffffffffffffffff16021790555080600360006101000a81548173ffffffffffffffffffffffffffffffffffffffff021916908373ffffffffffffffffffffffffffffffffffffffff1602179055505050505062000237565b60008151905062000177816200021d565b92915050565b600080600080608085870312156200019457600080fd5b6000620001a48782880162000166565b9450506020620001b78782880162000166565b9350506040620001ca8782880162000166565b9250506060620001dd8782880162000166565b91505092959194509250565b6000620001f682620001fd565b9050919050565b600073ffffffffffffffffffffffffffffffffffffffff82169050919050565b6200022881620001e9565b81146200023457600080fd5b50565b611b4c80620002476000396000f3fe6080604052600436106100295760003560e01c80638b4187131461002b578063c013147614610054575b005b34801561003757600080fd5b50610052600480360361004d9190810190611170565b61007d565b005b34801561006057600080fd5b5061007b6004803603610076919081019061110d565b6106e6565b005b610085610dc8565b818060200190516100999190810190611200565b90506000600160009054906101000a900473ffffffffffffffffffffffffffffffffffffffff1673ffffffffffffffffffffffffffffffffffffffff166370a08231306040518263ffffffff1660e01b81526004016100f89190611677565b60206040518083038186803b15801561011057600080fd5b505afa158015610124573d6000803e3d6000fd5b505050506040513d601f19601f820116820180604052506101489190810190611229565b9050600160009054906101000a900473ffffffffffffffffffffffffffffffffffffffff1673ffffffffffffffffffffffffffffffffffffffff1663095ea7b36000809054906101000a900473ffffffffffffffffffffffffffffffffffffffff16836040518363ffffffff1660e01b81526004016101c8929190611692565b602060405180830381600087803b1580156101e257600080fd5b505af11580156101f6573d6000803e3d6000fd5b505050506040513d601f19601f8201168201806040525061021a91908101906111d7565b5060008060009054906101000a900473ffffffffffffffffffffffffffffffffffffffff1673ffffffffffffffffffffffffffffffffffffffff1663809a9e55600160009054906101000a900473ffffffffffffffffffffffffffffffffffffffff1673eeeeeeeeeeeeeeeeeeeeeeeeeeeeeeeeeeeeeeee856040518463ffffffff1660e01b81526004016102b1939291906116f2565b604080518083038186803b1580156102c857600080fd5b505afa1580156102dc573d6000803e3d6000fd5b505050506040513d601f19601f820116820180604052506103009190810190611252565b5090506000809054906101000a900473ffffffffffffffffffffffffffffffffffffffff1673ffffffffffffffffffffffffffffffffffffffff16633bba21dc600160009054906101000a900473ffffffffffffffffffffffffffffffffffffffff1684846040518463ffffffff1660e01b815260040161038393929190611752565b602060405180830381600087803b15801561039d57600080fd5b505af11580156103b1573d6000803e3d6000fd5b505050506040513d601f19601f820116820180604052506103d59190810190611229565b5060008060009054906101000a900473ffffffffffffffffffffffffffffffffffffffff1673ffffffffffffffffffffffffffffffffffffffff1663809a9e5573eeeeeeeeeeeeeeeeeeeeeeeeeeeeeeeeeeeeeeee600160009054906101000a900473ffffffffffffffffffffffffffffffffffffffff16476040518463ffffffff1660e01b815260040161046c939291906116f2565b604080518083038186803b15801561048357600080fd5b505afa158015610497573d6000803e3d6000fd5b505050506040513d601f19601f820116820180604052506104bb9190810190611252565b5090506000809054906101000a900473ffffffffffffffffffffffffffffffffffffffff1673ffffffffffffffffffffffffffffffffffffffff16637a2a045647600160009054906101000a900473ffffffffffffffffffffffffffffffffffffffff16846040518463ffffffff1660e01b815260040161053d929190611729565b6020604051808303818588803b15801561055657600080fd5b505af115801561056a573d6000803e3d6000fd5b50505050506040513d601f19601f8201168201806040525061058f9190810190611229565b50600160009054906101000a900473ffffffffffffffffffffffffffffffffffffffff1673ffffffffffffffffffffffffffffffffffffffff166370a08231306040518263ffffffff1660e01b81526004016105eb9190611677565b60206040518083038186803b15801561060357600080fd5b505afa158015610617573d6000803e3d6000fd5b505050506040513d601f19601f8201168201806040525061063b9190810190611229565b925083602001518310156106dd57600260009054906101000a900473ffffffffffffffffffffffffffffffffffffffff1673ffffffffffffffffffffffffffffffffffffffff16638cd6b340848660200151036040518263ffffffff1660e01b81526004016106aa91906117e4565b600060405180830381600087803b1580156106c457600080fd5b505af11580156106d8573d6000803e3d6000fd5b505050505b50505050505050565b600084905060006106f7868661094f565b9050600061070485610b01565b90508573ffffffffffffffffffffffffffffffffffffffff1663095ea7b388836040518363ffffffff1660e01b8152600401610741929190611692565b602060405180830381600087803b15801561075b57600080fd5b505af115801561076f573d6000803e3d6000fd5b505050506040513d601f19601f8201168201806040525061079391908101906111d7565b50606060036040519080825280602002602001820160405280156107d157816020015b6107be610ded565b8152602001906001900390816107b65790505b5090506107de8387610b1e565b816000815181106107eb57fe5b602002602001018190525061083d604051806040016040528087600181111561081057fe5b81526020018481525060405160200161082991906117c9565b604051602081830303815290604052610bd7565b8160018151811061084a57fe5b602002602001018190525061085f8383610c81565b8160028151811061086c57fe5b6020026020010181905250606060016040519080825280602002602001820160405280156108b457816020015b6108a1610e59565b8152602001906001900390816108995790505b5090506108bf610d3a565b816000815181106108cc57fe5b60200260200101819052508473ffffffffffffffffffffffffffffffffffffffff1663a67a6a4582846040518363ffffffff1660e01b81526004016109129291906116bb565b600060405180830381600087803b15801561092c57600080fd5b505af1158015610940573d6000803e3d6000fd5b50505050505050505050505050565b60008083905060008173ffffffffffffffffffffffffffffffffffffffff1663295c39a56040518163ffffffff1660e01b815260040160206040518083038186803b15801561099d57600080fd5b505afa1580156109b1573d6000803e3d6000fd5b505050506040513d601f19601f820116820180604052506109d59190810190611229565b9050600080600090505b82811015610abf578373ffffffffffffffffffffffffffffffffffffffff1663062bd3e9826040518263ffffffff1660e01b8152600401610a2091906117e4565b60206040518083038186803b158015610a3857600080fd5b505afa158015610a4c573d6000803e3d6000fd5b505050506040513d601f19601f82011682018060405250610a7091908101906110e4565b91508573ffffffffffffffffffffffffffffffffffffffff168273ffffffffffffffffffffffffffffffffffffffff161415610ab25780945050505050610afb565b80806001019150506109df565b506040517f08c379a0000000000000000000000000000000000000000000000000000000008152600401610af2906117a9565b60405180910390fd5b92915050565b6000610b17600283610d7390919063ffffffff16565b9050919050565b610b26610e89565b60405180610100016040528060016008811115610b3f57fe5b815260200160008152602001604051806080016040528060001515815260200160006001811115610b6c57fe5b815260200160006001811115610b7e57fe5b8152602001858152508152602001848152602001600081526020013073ffffffffffffffffffffffffffffffffffffffff1681526020016000815260200160405180602001604052806000815250815250905092915050565b610bdf610e89565b604051806101000160405280600880811115610bf757fe5b815260200160008152602001604051806080016040528060001515815260200160006001811115610c2457fe5b815260200160006001811115610c3657fe5b81526020016000815250815260200160008152602001600081526020013073ffffffffffffffffffffffffffffffffffffffff16815260200160008152602001838152509050919050565b610c89610e89565b60405180610100016040528060006008811115610ca257fe5b815260200160008152602001604051806080016040528060011515815260200160006001811115610ccf57fe5b815260200160006001811115610ce157fe5b8152602001858152508152602001848152602001600081526020013073ffffffffffffffffffffffffffffffffffffffff1681526020016000815260200160405180602001604052806000815250815250905092915050565b610d42610ef5565b60405180604001604052803073ffffffffffffffffffffffffffffffffffffffff1681526020016001815250905090565b600080828401905083811015610dbe576040517f08c379a0000000000000000000000000000000000000000000000000000000008152600401610db590611789565b60405180910390fd5b8091505092915050565b604051806040016040528060006001811115610de057fe5b8152602001600081525090565b60405180610100016040528060006008811115610e0657fe5b815260200160008152602001610e1a610f25565b81526020016000815260200160008152602001600073ffffffffffffffffffffffffffffffffffffffff16815260200160008152602001606081525090565b6040518060400160405280600073ffffffffffffffffffffffffffffffffffffffff168152602001600081525090565b60405180610100016040528060006008811115610ea257fe5b815260200160008152602001610eb6610f25565b81526020016000815260200160008152602001600073ffffffffffffffffffffffffffffffffffffffff16815260200160008152602001606081525090565b6040518060400160405280600073ffffffffffffffffffffffffffffffffffffffff168152602001600081525090565b604051806080016040528060001515815260200160006001811115610f4657fe5b815260200160006001811115610f5857fe5b8152602001600081525090565b600081359050610f7481611ab4565b92915050565b600081519050610f8981611ab4565b92915050565b600081519050610f9e81611acb565b92915050565b600082601f830112610fb557600080fd5b8135610fc8610fc38261182c565b6117ff565b91508082526020830160208301858383011115610fe457600080fd5b610fef838284611a2d565b50505092915050565b60008135905061100781611ae2565b92915050565b60008151905061101c81611ae2565b92915050565b60006040828403121561103457600080fd5b61103e60406117ff565b9050600061104e8482850161100d565b6000830152506020611062848285016110cf565b60208301525092915050565b60006040828403121561108057600080fd5b61108a60406117ff565b9050600061109a84828501610f65565b60008301525060206110ae848285016110ba565b60208301525092915050565b6000813590506110c981611af2565b92915050565b6000815190506110de81611af2565b92915050565b6000602082840312156110f657600080fd5b600061110484828501610f7a565b91505092915050565b6000806000806080858703121561112357600080fd5b600061113187828801610f65565b945050602061114287828801610f65565b9350506040611153878288016110ba565b925050606061116487828801610ff8565b91505092959194509250565b60008060006080848603121561118557600080fd5b600061119386828701610f65565b93505060206111a48682870161106e565b925050606084013567ffffffffffffffff8111156111c157600080fd5b6111cd86828701610fa4565b9150509250925092565b6000602082840312156111e957600080fd5b60006111f784828501610f8f565b91505092915050565b60006040828403121561121257600080fd5b600061122084828501611022565b91505092915050565b60006020828403121561123b57600080fd5b6000611249848285016110cf565b91505092915050565b6000806040838503121561126557600080fd5b6000611273858286016110cf565b9250506020611284858286016110cf565b9150509250929050565b600061129a83836114f3565b905092915050565b60006112ae838361162a565b60408301905092915050565b6112c38161198b565b82525050565b6112d2816118f7565b82525050565b6112e1816118f7565b82525050565b60006112f282611878565b6112fc81856118b3565b93508360208202850161130e85611858565b8060005b8581101561134a578484038952815161132b858261128e565b945061133683611899565b925060208a01995050600181019050611312565b50829750879550505050505092915050565b600061136782611883565b61137181856118c4565b935061137c83611868565b8060005b838110156113ad57815161139488826112a2565b975061139f836118a6565b925050600181019050611380565b5085935050505092915050565b6113c381611909565b82525050565b60006113d48261188e565b6113de81856118d5565b93506113ee818560208601611a3c565b6113f781611a6f565b840191505092915050565b61140b8161199d565b82525050565b61141a816119c1565b82525050565b611429816119d3565b82525050565b611438816119e5565b82525050565b611447816119f7565b82525050565b600061145a601b836118e6565b91507f536166654d6174683a206164646974696f6e206f766572666c6f7700000000006000830152602082019050919050565b600061149a6024836118e6565b91507f4e6f206d61726b6574496420666f756e6420666f722070726f7669646564207460008301527f6f6b656e000000000000000000000000000000000000000000000000000000006020830152604082019050919050565b60006101608301600083015161150c6000860182611411565b50602083015161151f6020860182611659565b50604083015161153260408601826115d5565b50606083015161154560c0860182611659565b50608083015161155860e0860182611659565b5060a083015161156c6101008601826112c9565b5060c0830151611580610120860182611659565b5060e083015184820361014086015261159982826113c9565b9150508091505092915050565b6040820160008201516115bc600085018261143e565b5060208201516115cf6020850182611659565b50505050565b6080820160008201516115eb60008501826113ba565b5060208201516115fe6020850182611420565b506040820151611611604085018261142f565b5060608201516116246060850182611659565b50505050565b60408201600082015161164060008501826112c9565b5060208201516116536020850182611659565b50505050565b61166281611981565b82525050565b61167181611981565b82525050565b600060208201905061168c60008301846112ba565b92915050565b60006040820190506116a760008301856112d8565b6116b46020830184611668565b9392505050565b600060408201905081810360008301526116d5818561135c565b905081810360208301526116e981846112e7565b90509392505050565b60006060820190506117076000830186611402565b6117146020830185611402565b6117216040830184611668565b949350505050565b600060408201905061173e6000830185611402565b61174b6020830184611668565b9392505050565b60006060820190506117676000830186611402565b6117746020830185611668565b6117816040830184611668565b949350505050565b600060208201905081810360008301526117a28161144d565b9050919050565b600060208201905081810360008301526117c28161148d565b9050919050565b60006040820190506117de60008301846115a6565b92915050565b60006020820190506117f96000830184611668565b92915050565b6000604051905081810181811067ffffffffffffffff8211171561182257600080fd5b8060405250919050565b600067ffffffffffffffff82111561184357600080fd5b601f19601f8301169050602081019050919050565b6000819050602082019050919050565b6000819050602082019050919050565b600081519050919050565b600081519050919050565b600081519050919050565b6000602082019050919050565b6000602082019050919050565b600082825260208201905092915050565b600082825260208201905092915050565b600082825260208201905092915050565b600082825260208201905092915050565b600061190282611961565b9050919050565b60008115159050919050565b600081905061192382611a80565b919050565b600081905061193682611a8d565b919050565b600081905061194982611a9a565b919050565b600081905061195c82611aa7565b919050565b600073ffffffffffffffffffffffffffffffffffffffff82169050919050565b6000819050919050565b600061199682611a09565b9050919050565b60006119a8826119af565b9050919050565b60006119ba82611961565b9050919050565b60006119cc82611915565b9050919050565b60006119de82611928565b9050919050565b60006119f08261193b565b9050919050565b6000611a028261194e565b9050919050565b6000611a1482611a1b565b9050919050565b6000611a2682611961565b9050919050565b82818337600083830152505050565b60005b83811015611a5a578082015181840152602081019050611a3f565b83811115611a69576000848401525b50505050565b6000601f19601f8301169050919050565b60098110611a8a57fe5b50565b60028110611a9757fe5b50565b60028110611aa457fe5b50565b60028110611ab157fe5b50565b611abd816118f7565b8114611ac857600080fd5b50565b611ad481611909565b8114611adf57600080fd5b50565b60028110611aef57600080fd5b50565b611afb81611981565b8114611b0657600080fd5b5056fea365627a7a72315820f48ef5476ca64a8b113104272490f397a4813a1faad9331f0686dc4ce32244736c6578706572696d656e74616cf564736f6c63430005100040",
  "source": "pragma solidity ^0.5.0;\npragma experimental ABIEncoderV2;\n\nimport \"@studydefi/money-legos/dydx/contracts/DydxFlashloanBase.sol\";\nimport \"@studydefi/money-legos/dydx/contracts/ICallee.sol\";\nimport { KyberNetworkProxy as IKyberNetworkProxy } from '@studydefi/money-legos/kyber/contracts/KyberNetworkProxy.sol';\n\nimport \"@openzeppelin/contracts/token/ERC20/IERC20.sol\";\nimport './IUniswapV2Router02.sol';\nimport './IWeth.sol';\nimport './DaiFaucet.sol';\n\ncontract Flashloan is ICallee, DydxFlashloanBase {\n    enum Direction { KyberToUniswap, UniswapToKyber } \n    struct ArbInfo {\n        Direction direction;\n        uint repayAmount;\n    }\n\n    event NewArbitrage (\n      Direction direction,\n      uint profit,\n      uint date\n    );\n\n    IKyberNetworkProxy kyber;\n    IERC20 dai;\n    DaiFaucet daiFaucet;\n    address beneficiary;\n    address constant KYBER_ETH_ADDRESS = 0xEeeeeEeeeEeEeeEeEeEeeEEEeeeeEeeeeeeeEEeE;\n\n    constructor(\n        address kyberAddress,\n        address daiAddress,\n        address daiFaucetAddress,\n        address beneficiaryAddress\n    ) public {\n      kyber = IKyberNetworkProxy(kyberAddress);\n      dai = IERC20(daiAddress);\n      daiFaucet = DaiFaucet(daiFaucet);\n      beneficiary = beneficiaryAddress;\n    }\n\n    // This is the function that will be called postLoan\n    // i.e. Encode the logic to handle your flashloaned funds here\n    function callFunction(\n        address sender,\n        Account.Info memory account,\n        bytes memory data\n    ) public {\n        ArbInfo memory arbInfo = abi.decode(data, (ArbInfo));\n        uint256 balanceDai = dai.balanceOf(address(this));\n\n        // Note that you can ignore the line below\n        // if your dydx account (this contract in this case)\n        // has deposited at least ~2 Wei of assets into the account\n        // to balance out the collaterization ratio\n        //require(\n        //    balanceDai >= arbInfo.repayAmount,\n        //    \"Not enough funds to repay dydx loan!\"\n\n          //Buy ETH on Kyber\n          dai.approve(address(kyber), balanceDai); \n          (uint expectedRate, ) = kyber.getExpectedRate(\n            dai, \n            IERC20(KYBER_ETH_ADDRESS), \n            balanceDai\n          );\n          kyber.swapTokenToEther(dai, balanceDai, expectedRate);\n\n          //Sell ETH on Kyber\n          (uint expectedRate2, ) = kyber.getExpectedRate(\n            IERC20(KYBER_ETH_ADDRESS), \n            dai, \n            address(this).balance\n          );\n          kyber.swapEtherToToken.value(address(this).balance)(\n            dai, \n            expectedRate2\n          );\n\n        balanceDai = dai.balanceOf(address(this));\n        if(balanceDai < arbInfo.repayAmount) {\n          daiFaucet.sendDai(arbInfo.repayAmount - balanceDai);\n        }\n        //uint profit = dai.balanceOf(address(this)) - arbInfo.repayAmount; \n        //dai.transfer(beneficiary, profit);\n        //emit NewArbitrage(arbInfo.direction, profit, now);\n    }\n\n    function initiateFlashloan(\n      address _solo, \n      address _token, \n      uint256 _amount, \n      Direction _direction)\n        external\n    {\n        ISoloMargin solo = ISoloMargin(_solo);\n\n        // Get marketId from token address\n        uint256 marketId = _getMarketIdFromTokenAddress(_solo, _token);\n\n        // Calculate repay amount (_amount + (2 wei))\n        // Approve transfer from\n        uint256 repayAmount = _getRepaymentAmountInternal(_amount);\n        IERC20(_token).approve(_solo, repayAmount);\n\n        // 1. Withdraw $\n        // 2. Call callFunction(...)\n        // 3. Deposit back $\n        Actions.ActionArgs[] memory operations = new Actions.ActionArgs[](3);\n\n        operations[0] = _getWithdrawAction(marketId, _amount);\n        operations[1] = _getCallAction(\n            // Encode MyCustomData for callFunction\n            abi.encode(ArbInfo({direction: _direction, repayAmount: repayAmount}))\n        );\n        operations[2] = _getDepositAction(marketId, repayAmount);\n\n        Account.Info[] memory accountInfos = new Account.Info[](1);\n        accountInfos[0] = _getAccountInfo();\n\n        solo.operate(accountInfos, operations);\n    }\n\n    function() external payable {}\n}\n",
  "sourcePath": "/home/gokevin/profitable-flashloans/contracts/Flashloan.sol",
  "compiler": {
    "name": "solc",
    "version": "0.5.16+commit.9c3226ce.Emscripten.clang"
  },
  "schemaVersion": "3.2.5",
  "updatedAt": "2020-09-23T19:00:04.777Z",
  "networkType": "ethereum",
  "devdoc": {
    "methods": {}
  },
  "userdoc": {
    "methods": {}
  }
}